{
  "contractName": "Election",
  "abi": [
    {
      "inputs": [],
      "payable": false,
      "stateMutability": "nonpayable",
      "type": "constructor"
    },
    {
      "constant": false,
      "inputs": [
        {
          "internalType": "uint256",
          "name": "_candidateId",
          "type": "uint256"
        }
      ],
      "name": "vote",
      "outputs": [],
      "payable": false,
      "stateMutability": "nonpayable",
      "type": "function"
    },
    {
      "constant": true,
      "inputs": [
        {
          "internalType": "uint256",
          "name": "candidateId",
          "type": "uint256"
        }
      ],
      "name": "getCandidate",
      "outputs": [
        {
          "components": [
            {
              "internalType": "uint256",
              "name": "id",
              "type": "uint256"
            },
            {
              "internalType": "string",
              "name": "name",
              "type": "string"
            },
            {
              "internalType": "uint256",
              "name": "voteCount",
              "type": "uint256"
            }
          ],
          "internalType": "struct Election.Candidate",
          "name": "",
          "type": "tuple"
        }
      ],
      "payable": false,
      "stateMutability": "view",
      "type": "function"
    },
    {
      "constant": true,
      "inputs": [
        {
          "internalType": "uint256",
          "name": "candidateID",
          "type": "uint256"
        }
      ],
      "name": "getCandidateJS",
      "outputs": [
        {
          "internalType": "uint256",
          "name": "",
          "type": "uint256"
        },
        {
          "internalType": "string",
          "name": "",
          "type": "string"
        },
        {
          "internalType": "uint256",
          "name": "",
          "type": "uint256"
        }
      ],
      "payable": false,
      "stateMutability": "view",
      "type": "function"
    },
    {
      "constant": true,
      "inputs": [],
      "name": "getCandidatesCount",
      "outputs": [
        {
          "internalType": "uint256",
          "name": "",
          "type": "uint256"
        }
      ],
      "payable": false,
      "stateMutability": "view",
      "type": "function"
    },
    {
      "constant": true,
      "inputs": [
        {
          "internalType": "address",
          "name": "voterAddress",
          "type": "address"
        }
      ],
      "name": "getVoter",
      "outputs": [
        {
          "internalType": "bool",
          "name": "",
          "type": "bool"
        }
      ],
      "payable": false,
      "stateMutability": "view",
      "type": "function"
    }
  ],
  "bytecode": "0x608060405234801561001057600080fd5b506100556040518060400160405280600c81526020017f446f6e616c64205472756d70000000000000000000000000000000000000000081525061012660201b60201c565b6100996040518060400160405280600981526020017f4a6f6520426964656e000000000000000000000000000000000000000000000081525061012660201b60201c565b6100dd6040518060400160405280600c81526020017f42617261636b204f62616d61000000000000000000000000000000000000000081525061012660201b60201c565b6101216040518060400160405280600981526020017f456c6f6e204d75736b000000000000000000000000000000000000000000000081525061012660201b60201c565b610246565b60016000815480929190600101919050555060405180606001604052806001548152602001828152602001600081525060008060015481526020019081526020016000206000820151816000015560208201518160010190805190602001906101909291906101a1565b506040820151816002015590505050565b828054600181600116156101000203166002900490600052602060002090601f016020900481019282601f106101e257805160ff1916838001178555610210565b82800160010185558215610210579182015b8281111561020f5782518255916020019190600101906101f4565b5b50905061021d9190610221565b5090565b61024391905b8082111561023f576000816000905550600101610227565b5090565b90565b6107b6806102556000396000f3fe608060405234801561001057600080fd5b50600436106100575760003560e01c80630121b93f1461005c57806335b8e82014610078578063959bce19146100a8578063bb9aa28f146100da578063d4f50f98146100f8575b600080fd5b610076600480360361007191908101906104d3565b610128565b005b610092600480360361008d91908101906104d3565b61021a565b60405161009f9190610606565b60405180910390f35b6100c260048036036100bd91908101906104d3565b6102fc565b6040516100d193929190610643565b60405180910390f35b6100e26103ff565b6040516100ef9190610628565b60405180910390f35b610112600480360361010d91908101906104aa565b610409565b60405161011f91906105eb565b60405180910390f35b600260003373ffffffffffffffffffffffffffffffffffffffff1673ffffffffffffffffffffffffffffffffffffffff16815260200190815260200160002060009054906101000a900460ff161561017f57600080fd5b60008111801561019157506001548111155b61019a57600080fd5b6001600260003373ffffffffffffffffffffffffffffffffffffffff1673ffffffffffffffffffffffffffffffffffffffff16815260200190815260200160002060006101000a81548160ff0219169083151502179055506000808281526020019081526020016000206002016000815480929190600101919050555050565b61022261045f565b60008083815260200190815260200160002060405180606001604052908160008201548152602001600182018054600181600116156101000203166002900480601f0160208091040260200160405190810160405280929190818152602001828054600181600116156101000203166002900480156102e25780601f106102b7576101008083540402835291602001916102e2565b820191906000526020600020905b8154815290600101906020018083116102c557829003601f168201915b505050505081526020016002820154815250509050919050565b60006060600061030a61045f565b60008086815260200190815260200160002060405180606001604052908160008201548152602001600182018054600181600116156101000203166002900480601f0160208091040260200160405190810160405280929190818152602001828054600181600116156101000203166002900480156103ca5780601f1061039f576101008083540402835291602001916103ca565b820191906000526020600020905b8154815290600101906020018083116103ad57829003601f168201915b505050505081526020016002820154815250509050806000015181602001518260400151819150935093509350509193909250565b6000600154905090565b6000600260008373ffffffffffffffffffffffffffffffffffffffff1673ffffffffffffffffffffffffffffffffffffffff16815260200190815260200160002060009054906101000a900460ff169050919050565b60405180606001604052806000815260200160608152602001600081525090565b60008135905061048f81610745565b92915050565b6000813590506104a48161075c565b92915050565b6000602082840312156104bc57600080fd5b60006104ca84828501610480565b91505092915050565b6000602082840312156104e557600080fd5b60006104f384828501610495565b91505092915050565b610505816106cb565b82525050565b60006105168261068c565b61052081856106a8565b9350610530818560208601610701565b61053981610734565b840191505092915050565b600061054f82610681565b6105598185610697565b9350610569818560208601610701565b61057281610734565b840191505092915050565b600060608301600083015161059560008601826105cd565b50602083015184820360208601526105ad8282610544565b91505060408301516105c260408601826105cd565b508091505092915050565b6105d6816106f7565b82525050565b6105e5816106f7565b82525050565b600060208201905061060060008301846104fc565b92915050565b60006020820190508181036000830152610620818461057d565b905092915050565b600060208201905061063d60008301846105dc565b92915050565b600060608201905061065860008301866105dc565b818103602083015261066a818561050b565b905061067960408301846105dc565b949350505050565b600081519050919050565b600081519050919050565b600082825260208201905092915050565b600082825260208201905092915050565b60006106c4826106d7565b9050919050565b60008115159050919050565b600073ffffffffffffffffffffffffffffffffffffffff82169050919050565b6000819050919050565b60005b8381101561071f578082015181840152602081019050610704565b8381111561072e576000848401525b50505050565b6000601f19601f8301169050919050565b61074e816106b9565b811461075957600080fd5b50565b610765816106f7565b811461077057600080fd5b5056fea365627a7a723158208554fe4552a0f9940c56cd0a0cd81b81082e606f033f5c2666cdb9ef33d1bd296c6578706572696d656e74616cf564736f6c63430005100040",
  "source": "pragma solidity ^0.5.4;\r\npragma experimental ABIEncoderV2;\r\n\r\ncontract Election {\r\n    // Candidate struct\r\n    struct Candidate {\r\n        uint id;\r\n        string name;\r\n        uint voteCount;\r\n    }\r\n\r\n    // Candidates mapping - contains every presidential candidate\r\n    mapping(uint => Candidate) private candidates;\r\n    // Number of presidential candidates\r\n    uint private candidatesCount;\r\n    // Voters mapping - contains every user that has voted\r\n    mapping(address => bool) private voters;\r\n\r\n    // Public constructor - adds the candidates\r\n    constructor() public {\r\n        addCandidate(\"Donald Trump\");\r\n        addCandidate(\"Joe Biden\");\r\n        addCandidate(\"Barack Obama\");\r\n        addCandidate(\"Elon Musk\");\r\n    }\r\n\r\n    // Function for adding presidential candidates\r\n    function addCandidate(string memory _name) private {\r\n        candidatesCount++;\r\n        candidates[candidatesCount] = Candidate(candidatesCount, _name, 0);\r\n    }\r\n\r\n    // Function for voting for a specific candidate\r\n    function vote(uint _candidateId) public {\r\n        require(!voters[msg.sender]);\r\n\r\n        require(_candidateId > 0 && _candidateId <= candidatesCount);\r\n\r\n        voters[msg.sender] = true;\r\n\r\n        candidates[_candidateId].voteCount++;\r\n    }\r\n\r\n    // Getter function for a specific candidate\r\n    function getCandidate(uint candidateId) public view returns (Candidate memory) {\r\n        return candidates[candidateId];\r\n    }\r\n\r\n    // Getter function for a specific candidate in tuple format\r\n    function getCandidateJS(uint candidateID) public view returns (uint, string memory, uint) {\r\n        Candidate memory c = candidates[candidateID];\r\n\r\n        return (c.id, c.name, c.voteCount);\r\n    }\r\n\r\n    // Getter function for the number of candidates\r\n    function getCandidatesCount() public view returns (uint) {\r\n        return candidatesCount;\r\n    }\r\n\r\n    // Getter function for a specific voter\r\n    function getVoter(address voterAddress) public view returns (bool) {\r\n        return voters[voterAddress];\r\n    }\r\n\r\n}",
  "sourcePath": "C:\\Users\\Ivo\\Desktop\\FairVote\\election\\contracts\\Election.sol",
  "compiler": {
    "name": "solc",
    "version": "0.5.16+commit.9c3226ce.Emscripten.clang"
  },
  "schemaVersion": "3.4.7",
  "updatedAt": "2022-06-27T20:03:08.500Z",
  "networkType": "ethereum",
  "devdoc": {
    "methods": {}
  },
  "userdoc": {
    "methods": {}
  }
}